{
  "contractName": "SolnSquareVerifier",
  "abi": [
    {
      "constant": true,
      "inputs": [
        {
          "name": "interfaceId",
          "type": "bytes4"
        }
      ],
      "name": "supportsInterface",
      "outputs": [
        {
          "name": "",
          "type": "bool"
        }
      ],
      "payable": false,
      "stateMutability": "view",
      "type": "function"
    },
    {
      "constant": true,
      "inputs": [
        {
          "name": "tokenId",
          "type": "uint256"
        }
      ],
      "name": "getApproved",
      "outputs": [
        {
          "name": "",
          "type": "address"
        }
      ],
      "payable": false,
      "stateMutability": "view",
      "type": "function"
    },
    {
      "constant": false,
      "inputs": [
        {
          "name": "to",
          "type": "address"
        },
        {
          "name": "tokenId",
          "type": "uint256"
        }
      ],
      "name": "approve",
      "outputs": [],
      "payable": false,
      "stateMutability": "nonpayable",
      "type": "function"
    },
    {
      "constant": false,
      "inputs": [
        {
          "name": "paused",
          "type": "bool"
        }
      ],
      "name": "pauseUnpauseContract",
      "outputs": [],
      "payable": false,
      "stateMutability": "nonpayable",
      "type": "function"
    },
    {
      "constant": true,
      "inputs": [],
      "name": "totalSupply",
      "outputs": [
        {
          "name": "",
          "type": "uint256"
        }
      ],
      "payable": false,
      "stateMutability": "view",
      "type": "function"
    },
    {
      "constant": false,
      "inputs": [
        {
          "name": "from",
          "type": "address"
        },
        {
          "name": "to",
          "type": "address"
        },
        {
          "name": "tokenId",
          "type": "uint256"
        }
      ],
      "name": "transferFrom",
      "outputs": [],
      "payable": false,
      "stateMutability": "nonpayable",
      "type": "function"
    },
    {
      "constant": false,
      "inputs": [
        {
          "name": "_myid",
          "type": "bytes32"
        },
        {
          "name": "_result",
          "type": "string"
        }
      ],
      "name": "__callback",
      "outputs": [],
      "payable": false,
      "stateMutability": "nonpayable",
      "type": "function"
    },
    {
      "constant": true,
      "inputs": [
        {
          "name": "owner",
          "type": "address"
        },
        {
          "name": "index",
          "type": "uint256"
        }
      ],
      "name": "tokenOfOwnerByIndex",
      "outputs": [
        {
          "name": "",
          "type": "uint256"
        }
      ],
      "payable": false,
      "stateMutability": "view",
      "type": "function"
    },
    {
      "constant": false,
      "inputs": [
        {
          "name": "_myid",
          "type": "bytes32"
        },
        {
          "name": "_result",
          "type": "string"
        },
        {
          "name": "_proof",
          "type": "bytes"
        }
      ],
      "name": "__callback",
      "outputs": [],
      "payable": false,
      "stateMutability": "nonpayable",
      "type": "function"
    },
    {
      "constant": false,
      "inputs": [
        {
          "name": "to",
          "type": "address"
        },
        {
          "name": "tokenId",
          "type": "uint256"
        }
      ],
      "name": "mint",
      "outputs": [
        {
          "name": "",
          "type": "bool"
        }
      ],
      "payable": false,
      "stateMutability": "nonpayable",
      "type": "function"
    },
    {
      "constant": false,
      "inputs": [
        {
          "name": "from",
          "type": "address"
        },
        {
          "name": "to",
          "type": "address"
        },
        {
          "name": "tokenId",
          "type": "uint256"
        }
      ],
      "name": "safeTransferFrom",
      "outputs": [],
      "payable": false,
      "stateMutability": "nonpayable",
      "type": "function"
    },
    {
      "constant": true,
      "inputs": [
        {
          "name": "index",
          "type": "uint256"
        }
      ],
      "name": "tokenByIndex",
      "outputs": [
        {
          "name": "",
          "type": "uint256"
        }
      ],
      "payable": false,
      "stateMutability": "view",
      "type": "function"
    },
    {
      "constant": true,
      "inputs": [
        {
          "name": "tokenId",
          "type": "uint256"
        }
      ],
      "name": "ownerOf",
      "outputs": [
        {
          "name": "",
          "type": "address"
        }
      ],
      "payable": false,
      "stateMutability": "view",
      "type": "function"
    },
    {
      "constant": true,
      "inputs": [
        {
          "name": "owner",
          "type": "address"
        }
      ],
      "name": "balanceOf",
      "outputs": [
        {
          "name": "",
          "type": "uint256"
        }
      ],
      "payable": false,
      "stateMutability": "view",
      "type": "function"
    },
    {
      "constant": true,
      "inputs": [],
      "name": "getTokenUriDetails",
      "outputs": [
        {
          "name": "",
          "type": "string"
        },
        {
          "name": "",
          "type": "string"
        },
        {
          "name": "",
          "type": "string"
        }
      ],
      "payable": false,
      "stateMutability": "view",
      "type": "function"
    },
    {
      "constant": true,
      "inputs": [],
      "name": "isOwner",
      "outputs": [
        {
          "name": "",
          "type": "bool"
        }
      ],
      "payable": false,
      "stateMutability": "view",
      "type": "function"
    },
    {
      "constant": false,
      "inputs": [
        {
          "name": "to",
          "type": "address"
        },
        {
          "name": "approved",
          "type": "bool"
        }
      ],
      "name": "setApprovalForAll",
      "outputs": [],
      "payable": false,
      "stateMutability": "nonpayable",
      "type": "function"
    },
    {
      "constant": false,
      "inputs": [
        {
          "name": "from",
          "type": "address"
        },
        {
          "name": "to",
          "type": "address"
        },
        {
          "name": "tokenId",
          "type": "uint256"
        },
        {
          "name": "_data",
          "type": "bytes"
        }
      ],
      "name": "safeTransferFrom",
      "outputs": [],
      "payable": false,
      "stateMutability": "nonpayable",
      "type": "function"
    },
    {
      "constant": false,
      "inputs": [
        {
          "name": "tokenId",
          "type": "uint256"
        }
      ],
      "name": "setTokenURI",
      "outputs": [],
      "payable": false,
      "stateMutability": "nonpayable",
      "type": "function"
    },
    {
      "constant": true,
      "inputs": [
        {
          "name": "tokenId",
          "type": "uint256"
        }
      ],
      "name": "tokenURI",
      "outputs": [
        {
          "name": "",
          "type": "string"
        }
      ],
      "payable": false,
      "stateMutability": "view",
      "type": "function"
    },
    {
      "constant": true,
      "inputs": [
        {
          "name": "owner",
          "type": "address"
        },
        {
          "name": "operator",
          "type": "address"
        }
      ],
      "name": "isApprovedForAll",
      "outputs": [
        {
          "name": "",
          "type": "bool"
        }
      ],
      "payable": false,
      "stateMutability": "view",
      "type": "function"
    },
    {
      "constant": false,
      "inputs": [
        {
          "name": "newOwner",
          "type": "address"
        }
      ],
      "name": "transferOwnership",
      "outputs": [],
      "payable": false,
      "stateMutability": "nonpayable",
      "type": "function"
    },
    {
      "inputs": [
        {
          "name": "verifierAddress",
          "type": "address"
        }
      ],
      "payable": false,
      "stateMutability": "nonpayable",
      "type": "constructor"
    },
    {
      "anonymous": false,
      "inputs": [
        {
          "indexed": false,
          "name": "solutionAddress",
          "type": "address"
        },
        {
          "indexed": false,
          "name": "index",
          "type": "uint256"
        }
      ],
      "name": "SolutionAdded",
      "type": "event"
    },
    {
      "anonymous": false,
      "inputs": [
        {
          "indexed": true,
          "name": "from",
          "type": "address"
        },
        {
          "indexed": true,
          "name": "to",
          "type": "address"
        },
        {
          "indexed": true,
          "name": "tokenId",
          "type": "uint256"
        }
      ],
      "name": "Transfer",
      "type": "event"
    },
    {
      "anonymous": false,
      "inputs": [
        {
          "indexed": true,
          "name": "owner",
          "type": "address"
        },
        {
          "indexed": true,
          "name": "approved",
          "type": "address"
        },
        {
          "indexed": true,
          "name": "tokenId",
          "type": "uint256"
        }
      ],
      "name": "Approval",
      "type": "event"
    },
    {
      "anonymous": false,
      "inputs": [
        {
          "indexed": true,
          "name": "owner",
          "type": "address"
        },
        {
          "indexed": true,
          "name": "operator",
          "type": "address"
        },
        {
          "indexed": false,
          "name": "approved",
          "type": "bool"
        }
      ],
      "name": "ApprovalForAll",
      "type": "event"
    },
    {
      "anonymous": false,
      "inputs": [
        {
          "indexed": false,
          "name": "contractStatus",
          "type": "bool"
        }
      ],
      "name": "ContractPausedUnPaused",
      "type": "event"
    },
    {
      "anonymous": false,
      "inputs": [
        {
          "indexed": true,
          "name": "oldOwner",
          "type": "address"
        },
        {
          "indexed": true,
          "name": "newOwner",
          "type": "address"
        }
      ],
      "name": "TransferOwnership",
      "type": "event"
    },
    {
      "constant": false,
      "inputs": [
        {
          "name": "index",
          "type": "uint256"
        },
        {
          "name": "to",
          "type": "address"
        },
        {
          "name": "a",
          "type": "uint256[2]"
        },
        {
          "name": "a_p",
          "type": "uint256[2]"
        },
        {
          "name": "b",
          "type": "uint256[2][2]"
        },
        {
          "name": "b_p",
          "type": "uint256[2]"
        },
        {
          "name": "c",
          "type": "uint256[2]"
        },
        {
          "name": "c_p",
          "type": "uint256[2]"
        },
        {
          "name": "h",
          "type": "uint256[2]"
        },
        {
          "name": "k",
          "type": "uint256[2]"
        },
        {
          "name": "input",
          "type": "uint256[2]"
        }
      ],
      "name": "createSolution",
      "outputs": [
        {
          "name": "",
          "type": "bool"
        }
      ],
      "payable": false,
      "stateMutability": "nonpayable",
      "type": "function"
    },
    {
      "constant": false,
      "inputs": [
        {
          "name": "to",
          "type": "address"
        },
        {
          "name": "tokenId",
          "type": "uint256"
        },
        {
          "name": "a",
          "type": "uint256[2]"
        },
        {
          "name": "a_p",
          "type": "uint256[2]"
        },
        {
          "name": "b",
          "type": "uint256[2][2]"
        },
        {
          "name": "b_p",
          "type": "uint256[2]"
        },
        {
          "name": "c",
          "type": "uint256[2]"
        },
        {
          "name": "c_p",
          "type": "uint256[2]"
        },
        {
          "name": "h",
          "type": "uint256[2]"
        },
        {
          "name": "k",
          "type": "uint256[2]"
        },
        {
          "name": "input",
          "type": "uint256[2]"
        }
      ],
      "name": "mintSolution",
      "outputs": [
        {
          "name": "",
          "type": "bool"
        }
      ],
      "payable": false,
      "stateMutability": "nonpayable",
      "type": "function"
    }
  ],
  "bytecode": "0x60806040523480156200001157600080fd5b5060405160208062003ee9833981018060405260208110156200003357600080fd5b81019080805190602001909291905050506040805190810160405280601381526020017f5265616c204573746174652050726f6a656374000000000000000000000000008152506040805190810160405280600381526020017f5265640000000000000000000000000000000000000000000000000000000000815250606060405190810160405280603f815260200162003eaa603f9139336000806101000a81548173ffffffffffffffffffffffffffffffffffffffff021916908373ffffffffffffffffffffffffffffffffffffffff1602179055506000809054906101000a900473ffffffffffffffffffffffffffffffffffffffff1673ffffffffffffffffffffffffffffffffffffffff16600073ffffffffffffffffffffffffffffffffffffffff167f5c486528ec3e3f0ea91181cff8116f02bfa350e03b8b6f12e00765adbb5af85c60405160405180910390a360008060146101000a81548160ff021916908315150217905550620001de6301ffc9a77c0100000000000000000000000000000000000000000000000000000000026200032b640100000000026401000000009004565b6200021b6380ac58cd7c0100000000000000000000000000000000000000000000000000000000026200032b640100000000026401000000009004565b6200025863780e9d637c0100000000000000000000000000000000000000000000000000000000026200032b640100000000026401000000009004565b826010908051906020019062000270929190620003e9565b50816011908051906020019062000289929190620003e9565b508060129080519060200190620002a2929190620003e9565b50620002e0635b5e139f7c0100000000000000000000000000000000000000000000000000000000026200032b640100000000026401000000009004565b50505080601460006101000a81548173ffffffffffffffffffffffffffffffffffffffff021916908373ffffffffffffffffffffffffffffffffffffffff1602179055505062000498565b63ffffffff7c010000000000000000000000000000000000000000000000000000000002817bffffffffffffffffffffffffffffffffffffffffffffffffffffffff1916141515156200037d57600080fd5b6001806000837bffffffffffffffffffffffffffffffffffffffffffffffffffffffff19167bffffffffffffffffffffffffffffffffffffffffffffffffffffffff1916815260200190815260200160002060006101000a81548160ff02191690831515021790555050565b828054600181600116156101000203166002900490600052602060002090601f016020900481019282601f106200042c57805160ff19168380011785556200045d565b828001600101855582156200045d579182015b828111156200045c5782518255916020019190600101906200043f565b5b5090506200046c919062000470565b5090565b6200049591905b808211156200049157600081600090555060010162000477565b5090565b90565b613a0280620004a86000396000f3fe608060405234801561001057600080fd5b5060043610610175576000357c0100000000000000000000000000000000000000000000000000000000900480636352211e116100e0578063b88d4fde11610099578063b88d4fde14610c6b578063bff2612614610d70578063c87b56dd14610d9e578063e985e9c514610e45578063f00c685c14610ec1578063f2fde38b146111a957610175565b80636352211e146106f057806370a082311461075e5780637f7aaabe146107b657806386420f7e146109115780638f32d59b14610bf9578063a22cb46514610c1b57610175565b806327dc297e1161013257806327dc297e146103575780632f745c591461041c57806338bbfa501461047e57806340c10f19146105da57806342842e0e146106405780634f6ccce7146106ae57610175565b806301ffc9a71461017a578063081812fc146101df578063095ea7b31461024d57806312a603c21461029b57806318160ddd146102cb57806323b872dd146102e9575b600080fd5b6101c56004803603602081101561019057600080fd5b8101908080357bffffffffffffffffffffffffffffffffffffffffffffffffffffffff191690602001909291905050506111ed565b604051808215151515815260200191505060405180910390f35b61020b600480360360208110156101f557600080fd5b8101908080359060200190929190505050611255565b604051808273ffffffffffffffffffffffffffffffffffffffff1673ffffffffffffffffffffffffffffffffffffffff16815260200191505060405180910390f35b6102996004803603604081101561026357600080fd5b81019080803573ffffffffffffffffffffffffffffffffffffffff16906020019092919080359060200190929190505050611292565b005b6102c9600480360360208110156102b157600080fd5b8101908080351515906020019092919050505061151a565b005b6102d3611585565b6040518082815260200191505060405180910390f35b610355600480360360608110156102ff57600080fd5b81019080803573ffffffffffffffffffffffffffffffffffffffff169060200190929190803573ffffffffffffffffffffffffffffffffffffffff16906020019092919080359060200190929190505050611592565b005b61041a6004803603604081101561036d57600080fd5b81019080803590602001909291908035906020019064010000000081111561039457600080fd5b8201836020820111156103a657600080fd5b803590602001918460018302840111640100000000831117156103c857600080fd5b91908080601f016020809104026020016040519081016040528093929190818152602001838380828437600081840152601f19601f8201169050808301925050505050505091929192905050506115b7565b005b6104686004803603604081101561043257600080fd5b81019080803573ffffffffffffffffffffffffffffffffffffffff169060200190929190803590602001909291905050506115fa565b6040518082815260200191505060405180910390f35b6105d86004803603606081101561049457600080fd5b8101908080359060200190929190803590602001906401000000008111156104bb57600080fd5b8201836020820111156104cd57600080fd5b803590602001918460018302840111640100000000831117156104ef57600080fd5b91908080601f016020809104026020016040519081016040528093929190818152602001838380828437600081840152601f19601f8201169050808301925050505050505091929192908035906020019064010000000081111561055257600080fd5b82018360208201111561056457600080fd5b8035906020019184600183028401116401000000008311171561058657600080fd5b91908080601f016020809104026020016040519081016040528093929190818152602001838380828437600081840152601f19601f820116905080830192505050505050509192919290505050611671565b005b610626600480360360408110156105f057600080fd5b81019080803573ffffffffffffffffffffffffffffffffffffffff16906020019092919080359060200190929190505050611676565b604051808215151515815260200191505060405180910390f35b6106ac6004803603606081101561065657600080fd5b81019080803573ffffffffffffffffffffffffffffffffffffffff169060200190929190803573ffffffffffffffffffffffffffffffffffffffff16906020019092919080359060200190929190505050611726565b005b6106da600480360360208110156106c457600080fd5b8101908080359060200190929190505050611747565b6040518082815260200191505060405180910390f35b61071c6004803603602081101561070657600080fd5b810190808035906020019092919050505061177f565b604051808273ffffffffffffffffffffffffffffffffffffffff1673ffffffffffffffffffffffffffffffffffffffff16815260200191505060405180910390f35b6107a06004803603602081101561077457600080fd5b81019080803573ffffffffffffffffffffffffffffffffffffffff1690602001909291905050506117bc565b6040518082815260200191505060405180910390f35b6107be61188c565b60405180806020018060200180602001848103845287818151815260200191508051906020019080838360005b838110156108065780820151818401526020810190506107eb565b50505050905090810190601f1680156108335780820380516001836020036101000a031916815260200191505b50848103835286818151815260200191508051906020019080838360005b8381101561086c578082015181840152602081019050610851565b50505050905090810190601f1680156108995780820380516001836020036101000a031916815260200191505b50848103825285818151815260200191508051906020019080838360005b838110156108d25780820151818401526020810190506108b7565b50505050905090810190601f1680156108ff5780820380516001836020036101000a031916815260200191505b50965050505050505060405180910390f35b610bdf60048036036102c081101561092857600080fd5b81019080803573ffffffffffffffffffffffffffffffffffffffff1690602001909291908035906020019092919080604001906002806020026040519081016040528092919082600260200280828437600081840152601f19601f820116905080830192505050505050919291929080604001906002806020026040519081016040528092919082600260200280828437600081840152601f19601f82011690508083019250505050505091929192908060800190600280602002604051908101604052809291906000905b82821015610a48578382604002016002806020026040519081016040528092919082600260200280828437600081840152601f19601f820116905080830192505050505050815260200190600101906109f4565b50505050919291929080604001906002806020026040519081016040528092919082600260200280828437600081840152601f19601f820116905080830192505050505050919291929080604001906002806020026040519081016040528092919082600260200280828437600081840152601f19601f820116905080830192505050505050919291929080604001906002806020026040519081016040528092919082600260200280828437600081840152601f19601f820116905080830192505050505050919291929080604001906002806020026040519081016040528092919082600260200280828437600081840152601f19601f820116905080830192505050505050919291929080604001906002806020026040519081016040528092919082600260200280828437600081840152601f19601f820116905080830192505050505050919291929080604001906002806020026040519081016040528092919082600260200280828437600081840152601f19601f8201169050808301925050505050509192919290505050611a76565b604051808215151515815260200191505060405180910390f35b610c01611dbd565b604051808215151515815260200191505060405180910390f35b610c6960048036036040811015610c3157600080fd5b81019080803573ffffffffffffffffffffffffffffffffffffffff169060200190929190803515159060200190929190505050611e14565b005b610d6e60048036036080811015610c8157600080fd5b81019080803573ffffffffffffffffffffffffffffffffffffffff169060200190929190803573ffffffffffffffffffffffffffffffffffffffff1690602001909291908035906020019092919080359060200190640100000000811115610ce857600080fd5b820183602082011115610cfa57600080fd5b80359060200191846001830284011164010000000083111715610d1c57600080fd5b91908080601f016020809104026020016040519081016040528093929190818152602001838380828437600081840152601f19601f820116905080830192505050505050509192919290505050611f50565b005b610d9c60048036036020811015610d8657600080fd5b8101908080359060200190929190505050611f78565b005b610dca60048036036020811015610db457600080fd5b81019080803590602001909291905050506120d2565b6040518080602001828103825283818151815260200191508051906020019080838360005b83811015610e0a578082015181840152602081019050610def565b50505050905090810190601f168015610e375780820380516001836020036101000a031916815260200191505b509250505060405180910390f35b610ea760048036036040811015610e5b57600080fd5b81019080803573ffffffffffffffffffffffffffffffffffffffff169060200190929190803573ffffffffffffffffffffffffffffffffffffffff16906020019092919050505061219b565b604051808215151515815260200191505060405180910390f35b61118f60048036036102c0811015610ed857600080fd5b8101908080359060200190929190803573ffffffffffffffffffffffffffffffffffffffff16906020019092919080604001906002806020026040519081016040528092919082600260200280828437600081840152601f19601f820116905080830192505050505050919291929080604001906002806020026040519081016040528092919082600260200280828437600081840152601f19601f82011690508083019250505050505091929192908060800190600280602002604051908101604052809291906000905b82821015610ff8578382604002016002806020026040519081016040528092919082600260200280828437600081840152601f19601f82011690508083019250505050505081526020019060010190610fa4565b50505050919291929080604001906002806020026040519081016040528092919082600260200280828437600081840152601f19601f820116905080830192505050505050919291929080604001906002806020026040519081016040528092919082600260200280828437600081840152601f19601f820116905080830192505050505050919291929080604001906002806020026040519081016040528092919082600260200280828437600081840152601f19601f820116905080830192505050505050919291929080604001906002806020026040519081016040528092919082600260200280828437600081840152601f19601f820116905080830192505050505050919291929080604001906002806020026040519081016040528092919082600260200280828437600081840152601f19601f820116905080830192505050505050919291929080604001906002806020026040519081016040528092919082600260200280828437600081840152601f19601f820116905080830192505050505050919291929050505061222f565b604051808215151515815260200191505060405180910390f35b6111eb600480360360208110156111bf57600080fd5b81019080803573ffffffffffffffffffffffffffffffffffffffff1690602001909291905050506125e1565b005b600060016000837bffffffffffffffffffffffffffffffffffffffffffffffffffffffff19167bffffffffffffffffffffffffffffffffffffffffffffffffffffffff1916815260200190815260200160002060009054906101000a900460ff169050919050565b60006003600083815260200190815260200160002060009054906101000a900473ffffffffffffffffffffffffffffffffffffffff169050919050565b60003073ffffffffffffffffffffffffffffffffffffffff16636352211e836040518263ffffffff167c01000000000000000000000000000000000000000000000000000000000281526004018082815260200191505060206040518083038186803b15801561130157600080fd5b505afa158015611315573d6000803e3d6000fd5b505050506040513d602081101561132b57600080fd5b810190808051906020019092919050505090508073ffffffffffffffffffffffffffffffffffffffff168373ffffffffffffffffffffffffffffffffffffffff16141515156113c5576040517f08c379a00000000000000000000000000000000000000000000000000000000081526004018080602001828103825260348152602001806139a36034913960400191505060405180910390fd5b3373ffffffffffffffffffffffffffffffffffffffff168173ffffffffffffffffffffffffffffffffffffffff16141515611468576040517f08c379a000000000000000000000000000000000000000000000000000000000815260040180806020018281038252601c8152602001807f206d73672e73656e646572206964206e6f7420746865206f776e65720000000081525060200191505060405180910390fd5b826003600084815260200190815260200160002060006101000a81548173ffffffffffffffffffffffffffffffffffffffff021916908373ffffffffffffffffffffffffffffffffffffffff160217905550818373ffffffffffffffffffffffffffffffffffffffff168273ffffffffffffffffffffffffffffffffffffffff167f8c5be1e5ebec7d5bd14f71427d1e84f3dd0314c0f7b2291e5b200ac8c7c3b92560405160405180910390a4505050565b611522611dbd565b151561152d57600080fd5b80600060146101000a81548160ff0219169083151502179055507f96a7557221f5f089a102a81adcf5f5b1c87f4ebd1b3d94fb80e2f83e1ead7f8a81604051808215151515815260200191505060405180910390a150565b6000600980549050905090565b61159c33826126ee565b15156115a757600080fd5b6115b2838383612783565b505050565b6115f6828260006040519080825280601f01601f1916602001820160405280156115f05781602001600182028038833980820191505090505b50611671565b5050565b6000611605836117bc565b8210151561161257600080fd5b600760008473ffffffffffffffffffffffffffffffffffffffff1673ffffffffffffffffffffffffffffffffffffffff1681526020019081526020016000208281548110151561165e57fe5b9060005260206000200154905092915050565b505050565b6000611680611dbd565b151561168b57600080fd5b61169583836127a7565b3073ffffffffffffffffffffffffffffffffffffffff1663bff26126836040518263ffffffff167c010000000000000000000000000000000000000000000000000000000002815260040180828152602001915050600060405180830381600087803b15801561170457600080fd5b505af1158015611718573d6000803e3d6000fd5b505050506001905092915050565b6117428383836020604051908101604052806000815250611f50565b505050565b6000611751611585565b8210151561175e57600080fd5b60098281548110151561176d57fe5b90600052602060002001549050919050565b60006002600083815260200190815260200160002060009054906101000a900473ffffffffffffffffffffffffffffffffffffffff169050919050565b60008073ffffffffffffffffffffffffffffffffffffffff168273ffffffffffffffffffffffffffffffffffffffff1614151515611845576040517f08c379a00000000000000000000000000000000000000000000000000000000081526004018080602001828103825260228152602001806139816022913960400191505060405180910390fd5b600460008373ffffffffffffffffffffffffffffffffffffffff1673ffffffffffffffffffffffffffffffffffffffff168152602001908152602001600020549050919050565b6060806060601060116012828054600181600116156101000203166002900480601f01602080910402602001604051908101604052809291908181526020018280546001816001161561010002031660029004801561192c5780601f106119015761010080835404028352916020019161192c565b820191906000526020600020905b81548152906001019060200180831161190f57829003601f168201915b50505050509250818054600181600116156101000203166002900480601f0160208091040260200160405190810160405280929190818152602001828054600181600116156101000203166002900480156119c85780601f1061199d576101008083540402835291602001916119c8565b820191906000526020600020905b8154815290600101906020018083116119ab57829003601f168201915b50505050509150808054600181600116156101000203166002900480601f016020809104026020016040519081016040528092919081815260200182805460018160011615610100020316600290048015611a645780601f10611a3957610100808354040283529160200191611a64565b820191906000526020600020905b815481529060010190602001808311611a4757829003601f168201915b50505050509050925092509250909192565b600080601460009054906101000a900473ffffffffffffffffffffffffffffffffffffffff1673ffffffffffffffffffffffffffffffffffffffff1663fe01ff628c8c8c8c8c8c8c8c8c6040518a63ffffffff167c0100000000000000000000000000000000000000000000000000000000028152600401808a600260200280838360005b83811015611b16578082015181840152602081019050611afb565b5050505090500189600260200280838360005b83811015611b44578082015181840152602081019050611b29565b505050509050018860026000925b81841015611b985782846020020151600260200280838360005b83811015611b87578082015181840152602081019050611b6c565b505050509050019260010192611b52565b9250505087600260200280838360005b83811015611bc3578082015181840152602081019050611ba8565b5050505090500186600260200280838360005b83811015611bf1578082015181840152602081019050611bd6565b5050505090500185600260200280838360005b83811015611c1f578082015181840152602081019050611c04565b5050505090500184600260200280838360005b83811015611c4d578082015181840152602081019050611c32565b5050505090500183600260200280838360005b83811015611c7b578082015181840152602081019050611c60565b5050505090500182600260200280838360005b83811015611ca9578082015181840152602081019050611c8e565b505050509050019950505050505050505050602060405180830381600087803b158015611cd557600080fd5b505af1158015611ce9573d6000803e3d6000fd5b505050506040513d6020811015611cff57600080fd5b8101908080519060200190929190505050905060011515811515141515611d8e576040517f08c379a00000000000000000000000000000000000000000000000000000000081526004018080602001828103825260128152602001807f70726f6f6620697320696e636f7272656374000000000000000000000000000081525060200191505060405180910390fd5b611da18c8e8d8d8d8d8d8d8d8d8d61222f565b50611dac8d8d611676565b50509b9a5050505050505050505050565b60008060009054906101000a900473ffffffffffffffffffffffffffffffffffffffff1673ffffffffffffffffffffffffffffffffffffffff163373ffffffffffffffffffffffffffffffffffffffff1614905090565b3373ffffffffffffffffffffffffffffffffffffffff168273ffffffffffffffffffffffffffffffffffffffff1614151515611e4f57600080fd5b80600660003373ffffffffffffffffffffffffffffffffffffffff1673ffffffffffffffffffffffffffffffffffffffff16815260200190815260200160002060008473ffffffffffffffffffffffffffffffffffffffff1673ffffffffffffffffffffffffffffffffffffffff16815260200190815260200160002060006101000a81548160ff0219169083151502179055508173ffffffffffffffffffffffffffffffffffffffff163373ffffffffffffffffffffffffffffffffffffffff167f17307eab39ab6107e8899845ad3d59bd9653f200f220920489ca2b5937696c3183604051808215151515815260200191505060405180910390a35050565b611f5b848484611592565b611f67848484846127c8565b1515611f7257600080fd5b50505050565b60011515611f85826129eb565b1515141515611ffc576040517f08c379a00000000000000000000000000000000000000000000000000000000081526004018080602001828103825260158152602001807f746f6b656e20646f6573206e6f7420657869737473000000000000000000000081525060200191505060405180910390fd5b6120a860128054600181600116156101000203166002900480601f0160208091040260200160405190810160405280929190818152602001828054600181600116156101000203166002900480156120955780601f1061206a57610100808354040283529160200191612095565b820191906000526020600020905b81548152906001019060200180831161207857829003601f168201915b50505050506120a383612a5d565b612bb6565b6013600083815260200190815260200160002090805190602001906120ce929190613883565b5050565b60606120dd826129eb565b15156120e857600080fd5b601360008381526020019081526020016000208054600181600116156101000203166002900480601f01602080910402602001604051908101604052809291908181526020018280546001816001161561010002031660029004801561218f5780601f106121645761010080835404028352916020019161218f565b820191906000526020600020905b81548152906001019060200180831161217257829003601f168201915b50505050509050919050565b6000600660008473ffffffffffffffffffffffffffffffffffffffff1673ffffffffffffffffffffffffffffffffffffffff16815260200190815260200160002060008373ffffffffffffffffffffffffffffffffffffffff1673ffffffffffffffffffffffffffffffffffffffff16815260200190815260200160002060009054906101000a900460ff16905092915050565b6000808a8a8a8a8a8a8a8a6040516020018089600260200280838360005b8381101561226857808201518184015260208101905061224d565b5050505090500188600260200280838360005b8381101561229657808201518184015260208101905061227b565b505050509050018760026000925b818410156122ea5782846020020151600260200280838360005b838110156122d95780820151818401526020810190506122be565b5050505090500192600101926122a4565b9250505086600260200280838360005b838110156123155780820151818401526020810190506122fa565b5050505090500185600260200280838360005b83811015612343578082015181840152602081019050612328565b5050505090500184600260200280838360005b83811015612371578082015181840152602081019050612356565b5050505090500183600260200280838360005b8381101561239f578082015181840152602081019050612384565b5050505090500182600260200280838360005b838110156123cd5780820151818401526020810190506123b2565b5050505090500198505050505050505050604051602081830303815290604052805190602001209050600073ffffffffffffffffffffffffffffffffffffffff166015600083815260200190815260200160002060010160009054906101000a900473ffffffffffffffffffffffffffffffffffffffff1673ffffffffffffffffffffffffffffffffffffffff161415156124d0576040517f08c379a00000000000000000000000000000000000000000000000000000000081526004018080602001828103825260178152602001807f536f6c7574696f6e20616c72656164792065786973747300000000000000000081525060200191505060405180910390fd5b60408051908101604052808e81526020018d73ffffffffffffffffffffffffffffffffffffffff16815250601560008381526020019081526020016000206000820151816000015560208201518160010160006101000a81548173ffffffffffffffffffffffffffffffffffffffff021916908373ffffffffffffffffffffffffffffffffffffffff1602179055509050507f3a01cc868bdb36c1d9b8a262a8ad25064b23ac175b3f8e4453f1daf8ff6bac0d8c8e604051808373ffffffffffffffffffffffffffffffffffffffff1673ffffffffffffffffffffffffffffffffffffffff1681526020018281526020019250505060405180910390a160019150509b9a5050505050505050505050565b6125e9611dbd565b15156125f457600080fd5b600073ffffffffffffffffffffffffffffffffffffffff168173ffffffffffffffffffffffffffffffffffffffff161415151561263057600080fd5b8073ffffffffffffffffffffffffffffffffffffffff166000809054906101000a900473ffffffffffffffffffffffffffffffffffffffff1673ffffffffffffffffffffffffffffffffffffffff167f5c486528ec3e3f0ea91181cff8116f02bfa350e03b8b6f12e00765adbb5af85c60405160405180910390a3806000806101000a81548173ffffffffffffffffffffffffffffffffffffffff021916908373ffffffffffffffffffffffffffffffffffffffff16021790555050565b6000806126fa8361177f565b90508073ffffffffffffffffffffffffffffffffffffffff168473ffffffffffffffffffffffffffffffffffffffff16148061276957508373ffffffffffffffffffffffffffffffffffffffff1661275184611255565b73ffffffffffffffffffffffffffffffffffffffff16145b8061277a5750612779818561219b565b5b91505092915050565b61278e838383612bfd565b6127988382612e32565b6127a28282612fd6565b505050565b6127b1828261309d565b6127bb8282612fd6565b6127c481613311565b5050565b60006127e98473ffffffffffffffffffffffffffffffffffffffff1661335d565b15156127f857600190506129e3565b60008473ffffffffffffffffffffffffffffffffffffffff1663150b7a02338887876040518563ffffffff167c0100000000000000000000000000000000000000000000000000000000028152600401808573ffffffffffffffffffffffffffffffffffffffff1673ffffffffffffffffffffffffffffffffffffffff1681526020018473ffffffffffffffffffffffffffffffffffffffff1673ffffffffffffffffffffffffffffffffffffffff16815260200183815260200180602001828103825283818151815260200191508051906020019080838360005b838110156128ef5780820151818401526020810190506128d4565b50505050905090810190601f16801561291c5780820380516001836020036101000a031916815260200191505b5095505050505050602060405180830381600087803b15801561293e57600080fd5b505af1158015612952573d6000803e3d6000fd5b505050506040513d602081101561296857600080fd5b8101908080519060200190929190505050905063150b7a027c0100000000000000000000000000000000000000000000000000000000027bffffffffffffffffffffffffffffffffffffffffffffffffffffffff1916817bffffffffffffffffffffffffffffffffffffffffffffffffffffffff1916149150505b949350505050565b6000806002600084815260200190815260200160002060009054906101000a900473ffffffffffffffffffffffffffffffffffffffff169050600073ffffffffffffffffffffffffffffffffffffffff168173ffffffffffffffffffffffffffffffffffffffff161415915050919050565b60606000821415612aa5576040805190810160405280600181526020017f30000000000000000000000000000000000000000000000000000000000000008152509050612bb1565b600082905060005b600082141515612ad3578080600101915050600a82811515612acb57fe5b049150612aad565b6060816040519080825280601f01601f191660200182016040528015612b085781602001600182028038833980820191505090505b50905060006001830390505b600086141515612ba957600a86811515612b2a57fe5b066030017f010000000000000000000000000000000000000000000000000000000000000002828280600190039350815181101515612b6557fe5b9060200101907effffffffffffffffffffffffffffffffffffffffffffffffffffffffffffff1916908160001a905350600a86811515612ba157fe5b049550612b14565b819450505050505b919050565b6060612bf58383602060405190810160405280600081525060206040519081016040528060008152506020604051908101604052806000815250613370565b905092915050565b612c068161177f565b73ffffffffffffffffffffffffffffffffffffffff168373ffffffffffffffffffffffffffffffffffffffff16141515612c8b576040517f08c379a000000000000000000000000000000000000000000000000000000000815260040180806020018281038252602c815260200180613955602c913960400191505060405180910390fd5b600073ffffffffffffffffffffffffffffffffffffffff168273ffffffffffffffffffffffffffffffffffffffff1614151515612d30576040517f08c379a000000000000000000000000000000000000000000000000000000000815260040180806020018281038252601b8152602001807f676976656e20746f206164647265737320697320696e76616c6964000000000081525060200191505060405180910390fd5b612d398161378b565b816002600083815260200190815260200160002060006101000a81548173ffffffffffffffffffffffffffffffffffffffff021916908373ffffffffffffffffffffffffffffffffffffffff160217905550612dd2600560008473ffffffffffffffffffffffffffffffffffffffff1673ffffffffffffffffffffffffffffffffffffffff16815260200190815260200160002061384b565b808273ffffffffffffffffffffffffffffffffffffffff168473ffffffffffffffffffffffffffffffffffffffff167fddf252ad1be2c89b69c2b068fc378daa952ba7f163c4a11628f55a4df523b3ef60405160405180910390a4505050565b6000612e8a6001600760008673ffffffffffffffffffffffffffffffffffffffff1673ffffffffffffffffffffffffffffffffffffffff1681526020019081526020016000208054905061386190919063ffffffff16565b90506000600860008481526020019081526020016000205490508181141515612f7d576000600760008673ffffffffffffffffffffffffffffffffffffffff1673ffffffffffffffffffffffffffffffffffffffff16815260200190815260200160002083815481101515612efb57fe5b9060005260206000200154905080600760008773ffffffffffffffffffffffffffffffffffffffff1673ffffffffffffffffffffffffffffffffffffffff16815260200190815260200160002083815481101515612f5557fe5b9060005260206000200181905550816008600083815260200190815260200160002081905550505b600760008573ffffffffffffffffffffffffffffffffffffffff1673ffffffffffffffffffffffffffffffffffffffff168152602001908152602001600020805480919060019003612fcf9190613903565b5050505050565b600760008373ffffffffffffffffffffffffffffffffffffffff1673ffffffffffffffffffffffffffffffffffffffff168152602001908152602001600020805490506008600083815260200190815260200160002081905550600760008373ffffffffffffffffffffffffffffffffffffffff1673ffffffffffffffffffffffffffffffffffffffff1681526020019081526020016000208190806001815401808255809150509060018203906000526020600020016000909192909190915055505050565b600073ffffffffffffffffffffffffffffffffffffffff168273ffffffffffffffffffffffffffffffffffffffff1614151515613142576040517f08c379a000000000000000000000000000000000000000000000000000000000815260040180806020018281038252601b8152602001807f676976656e20746f206164647265737320697320696e76616c6964000000000081525060200191505060405180910390fd5b600073ffffffffffffffffffffffffffffffffffffffff166002600083815260200190815260200160002060009054906101000a900473ffffffffffffffffffffffffffffffffffffffff1673ffffffffffffffffffffffffffffffffffffffff16141515613219576040517f08c379a00000000000000000000000000000000000000000000000000000000081526004018080602001828103825260148152602001807f746f6b656e20616c72656164792065786973747300000000000000000000000081525060200191505060405180910390fd5b816002600083815260200190815260200160002060006101000a81548173ffffffffffffffffffffffffffffffffffffffff021916908373ffffffffffffffffffffffffffffffffffffffff1602179055506132b2600560008473ffffffffffffffffffffffffffffffffffffffff1673ffffffffffffffffffffffffffffffffffffffff16815260200190815260200160002061384b565b808273ffffffffffffffffffffffffffffffffffffffff163373ffffffffffffffffffffffffffffffffffffffff167fddf252ad1be2c89b69c2b068fc378daa952ba7f163c4a11628f55a4df523b3ef60405160405180910390a45050565b600980549050600a600083815260200190815260200160002081905550600981908060018154018082558091505090600182039060005260206000200160009091929091909150555050565b600080823b905060008111915050919050565b6060808690506060869050606086905060608690506060869050606081518351855187518951010101016040519080825280601f01601f1916602001820160405280156133cc5781602001600182028038833980820191505090505b509050606081905060008090506000809050600090505b88518110156134965788818151811015156133fa57fe5b9060200101517f010000000000000000000000000000000000000000000000000000000000000090047f010000000000000000000000000000000000000000000000000000000000000002838380600101945081518110151561345957fe5b9060200101907effffffffffffffffffffffffffffffffffffffffffffffffffffffffffffff1916908160001a90535080806001019150506133e3565b600090505b875181101561354e5787818151811015156134b257fe5b9060200101517f010000000000000000000000000000000000000000000000000000000000000090047f010000000000000000000000000000000000000000000000000000000000000002838380600101945081518110151561351157fe5b9060200101907effffffffffffffffffffffffffffffffffffffffffffffffffffffffffffff1916908160001a905350808060010191505061349b565b600090505b865181101561360657868181518110151561356a57fe5b9060200101517f010000000000000000000000000000000000000000000000000000000000000090047f01000000000000000000000000000000000000000000000000000000000000000283838060010194508151811015156135c957fe5b9060200101907effffffffffffffffffffffffffffffffffffffffffffffffffffffffffffff1916908160001a9053508080600101915050613553565b600090505b85518110156136be57858181518110151561362257fe5b9060200101517f010000000000000000000000000000000000000000000000000000000000000090047f010000000000000000000000000000000000000000000000000000000000000002838380600101945081518110151561368157fe5b9060200101907effffffffffffffffffffffffffffffffffffffffffffffffffffffffffffff1916908160001a905350808060010191505061360b565b600090505b84518110156137765784818151811015156136da57fe5b9060200101517f010000000000000000000000000000000000000000000000000000000000000090047f010000000000000000000000000000000000000000000000000000000000000002838380600101945081518110151561373957fe5b9060200101907effffffffffffffffffffffffffffffffffffffffffffffffffffffffffffff1916908160001a90535080806001019150506136c3565b82995050505050505050505095945050505050565b600073ffffffffffffffffffffffffffffffffffffffff166003600083815260200190815260200160002060009054906101000a900473ffffffffffffffffffffffffffffffffffffffff1673ffffffffffffffffffffffffffffffffffffffff161415156138485760006003600083815260200190815260200160002060006101000a81548173ffffffffffffffffffffffffffffffffffffffff021916908373ffffffffffffffffffffffffffffffffffffffff1602179055505b50565b6001816000016000828254019250508190555050565b600082821115151561387257600080fd5b600082840390508091505092915050565b828054600181600116156101000203166002900490600052602060002090601f016020900481019282601f106138c457805160ff19168380011785556138f2565b828001600101855582156138f2579182015b828111156138f15782518255916020019190600101906138d6565b5b5090506138ff919061392f565b5090565b81548183558181111561392a57818360005260206000209182019101613929919061392f565b5b505050565b61395191905b8082111561394d576000816000905550600101613935565b5090565b9056fe66726f6d2061646472657373206973206e6f7420746865206f776e6572206f6620676976656e20746f6b656e63616e6e6f742061736b206f662062616c616e6365206f662061646472657373203074686520676976656e20616464726573732063616e6e6f7420626520746865206f776e6572206f662074686520746f6b656e4964a165627a7a72305820fe28575fab966c1986da13a4b6c22248ececc91e5c5262ae15b3f58c9080e7b0002968747470733a2f2f73332d75732d776573742d322e616d617a6f6e6177732e636f6d2f756461636974792d626c6f636b636861696e2f63617073746f6e652f",
  "source": "pragma solidity  ^0.5.2;\n// >=0.4.21 <0.6.0;\n\nimport './ERC721Mintable.sol';\n\n// TODO define a contract call to the zokrates generated solidity contract <Verifier> or <renamedVerifier>\n\n\n\n// TODO define another contract named SolnSquareVerifier that inherits from your ERC721Mintable class\n\n\ncontract SolnSquareVerifier is ERC721MintableComplete {\n    Verifier objVerifier;\n\n\n    constructor(address verifierAddress) ERC721MintableComplete() public \n    {\n        objVerifier = Verifier(verifierAddress);\n    }\n\n    // TODO define a solutions struct that can hold an index & an address    \n    struct solution {\n        uint256 index;\n        address owner;\n    }\n\n    // TODO define a mapping to store unique solutions submitted\n    mapping(bytes32 => solution) private solutionMap;\n\n    // TODO define an array of the above struct\n\n    // TODO Create an event to emit when a solution is added\n    event SolutionAdded ( address solutionAddress, uint256 index );\n    \n    // TODO Create a function to add the solutions to the array and emit the event\n    function createSolution (uint256 index, address to, \n                            uint[2] memory a,\n                            uint[2] memory a_p,\n                            uint[2][2] memory b,\n                            uint[2] memory b_p,\n                            uint[2] memory c,\n                            uint[2] memory c_p,\n                            uint[2] memory h,\n                            uint[2] memory k,\n                            uint[2] memory input) public returns (bool) {\n\n        bytes32  key =  keccak256(abi.encodePacked(a,a_p, b, b_p,c,c_p,h,k));\n        require(solutionMap[key].owner == address(0), \"Solution already exists\");\n        solutionMap[key] = solution({\n                                        index: index,\n                                        owner: to\n                                    });\n        emit SolutionAdded(to, index);\n        return true;\n    }\n\n\n    // TODO Create a function to mint new NFT only after the solution has been verified\n    //  - make sure the solution is unique (has not been used before)\n    //  - make sure you handle metadata as well as tokenSuplly\n    function mintSolution (address to, uint256 tokenId, \n                            uint[2] memory a,\n                            uint[2] memory a_p,\n                            uint[2][2] memory b,\n                            uint[2] memory b_p,\n                            uint[2] memory c,\n                            uint[2] memory c_p,\n                            uint[2] memory h,\n                            uint[2] memory k,\n                            uint[2] memory input) public returns (bool) {\n        \n       // bytes32  _key =  keccak256(abi.encodePacked(a,a_p, b, b_p,c,c_p,h,k));\n        //require(solutionMap[key] == address(0), \"Solution already exists\");\n\n        bool flagVerifier = objVerifier.verifyTx(a,a_p, b, b_p,c,c_p,h,k,input); \n\n        require(flagVerifier == true, \"proof is incorrect\");\n\n        createSolution( tokenId, to, a,a_p, b, b_p,c,c_p,h,k,input);\n\n        super.mint(to, tokenId);\n    }\n\n}\n \ncontract Verifier {\n\n    function verifyTx(\n            uint[2] memory a,\n            uint[2] memory a_p,\n            uint[2][2] memory b,\n            uint[2] memory b_p,\n            uint[2] memory c,\n            uint[2] memory c_p,\n            uint[2] memory h,\n            uint[2] memory k,\n            uint[2] memory input\n        ) public returns (bool r);\n}\n\n\n\n\n\n\n\n\n\n  \n\n\n\n\n\n\n\n\n\n\n\n\n\n\n\n\n\n\n\n\n\n\n\n\n\n\n",
  "sourcePath": "C:/Swati/BlockChain/Capstone/eth-contracts/contracts/SolnSquareVerifier.sol",
  "compiler": {
    "name": "solc",
    "version": "0.5.2+commit.1df8f40c.Emscripten.clang"
  },
  "schemaVersion": "3.0.6",
  "updatedAt": "2019-05-02T00:12:43.510Z",
  "devdoc": {
    "methods": {
      "isApprovedForAll(address,address)": {
        "details": "Tells whether an operator is approved by a given owner",
        "params": {
          "operator": "operator address which you want to query the approval of",
          "owner": "owner address which you want to query the approval of"
        },
        "return": "bool whether the given operator is approved by the given owner"
      },
      "setApprovalForAll(address,bool)": {
        "details": "Sets or unsets the approval of a given operator An operator is allowed to transfer all tokens of the sender on their behalf",
        "params": {
          "approved": "representing the status of the approval to be set",
          "to": "operator address to set the approval"
        }
      },
      "supportsInterface(bytes4)": {
        "details": "implement supportsInterface(bytes4) using a lookup table"
      },
      "tokenByIndex(uint256)": {
        "details": "Gets the token ID at a given index of all the tokens in this contract Reverts if the index is greater or equal to the total number of tokens",
        "params": {
          "index": "uint256 representing the index to be accessed of the tokens list"
        },
        "return": "uint256 token ID at the given index of the tokens list"
      },
      "tokenOfOwnerByIndex(address,uint256)": {
        "details": "Gets the token ID at a given index of the tokens list of the requested owner",
        "params": {
          "index": "uint256 representing the index to be accessed of the requested tokens list",
          "owner": "address owning the tokens list to be accessed"
        },
        "return": "uint256 token ID at the given index of the tokens list owned by the requested address"
      },
      "totalSupply()": {
        "details": "Gets the total amount of tokens stored by the contract",
        "return": "uint256 representing the total amount of tokens"
      }
    }
  },
  "userdoc": {
    "methods": {
      "isOwner()": {
        "notice": "Check if the calling address is the owner of the contract"
      }
    }
  }
}